:1000000019C01EC01DC01CC01BC01AC019C018C01A
:1000100017C016C01215171A1B1D1E1E1E1D1B1AF7
:100020001715120F0C090704030100000001030457
:1000300007090C0F11241FBECFE9CDBF02D023C08A
:10004000DFCF8FE187BB18BA23E330E084E190E093
:10005000FC01449148BB319640E0E333F407C9F713
:10006000E4E1F0E0449148BB000031962E173F07D1
:10007000C9F7FC01449148BB000000000196281715
:0A0080003907B9F7E3CFF894FFCF7A
:00000001FF
