:100000000EC028C027C026C025C024C023C022C0DF
:1000100021C020C01FC01EC01DC01CC01BC0112499
:100020001FBECFE5D2E0DEBFCDBF20E0A4E6B0E04A
:1000300001C01D92AD37B207E1F710E0A0E6B0E0D5
:10004000EAEBF7E002C005900D92A436B107D9F7AC
:100050000CD1B1C3D5CFBB9A8DB18F718DB98DB194
:100060008A618DB9BA9AB99AB8986A9A08958FB97F
:1000700080E48EB9769902C0689AFCCF8FB108955A
:10008000CF93C82FC29AC398892FF1DF8C2FEFDF4F
:10009000C39AC29ACF91089580937A0020917B00F1
:1000A00030917C00813049F030F0823049F083306B
:1000B00069F42D7107C0206C05C02F71226002C049
:1000C0002D73286230937C0020937B0080917B000D
:1000D00090917C00D5CF8093780020917B00309167
:1000E0007C00882321F0813039F4386001C0377FEB
:1000F00030937C0020937B0080917B0090917C006A
:10010000BFCFCF93DF93282FCB01BA01213019F055
:10011000C0E0D0EC02C0C0E0D0EEE22FF0E0EE0F85
:10012000FF1FEE0FFF1FE459FF4F6083718382832F
:10013000938320E030E040E054E422D220E030E03D
:1001400044E352E4FBD062D1CE01862B972BDF91A2
:10015000CF9196CF8093790020917B0030917C00E5
:10016000882321F0813039F4346001C03B7F309323
:100170007C0020937B0080917B0090917C0080CF5D
:100180008F929F92AF92BF92CF92DF92EF92FF92A7
:10019000CF93DF93C82F4A015B0127E73CEC4BE28A
:1001A00051E4C501B401ECD120E030E040E850E476
:1001B000E7D12CD16B017C01EC2FF0E0EE0FFF1F9B
:1001C000EE0FFF1FEC59FF4F80829182A282B38213
:1001D000C13019F0C0E0D0E402C0C0E0D0E88091A6
:1001E0007B0090917C0090624BDFD701C60122E03A
:1001F000B695A795979587952A95D1F79F738C2BE0
:100200009D2B3EDFC7019F738C2B9D2BDF91CF91E0
:10021000FF90EF90DF90CF90BF90AF909F908F9026
:100220002FCF80E491E02CDFE4E6F0E08789908D29
:100230008064908F878B60E070E080E090E0A0DFCA
:1002400060E070E081E090E09BDF60E070E080E0E3
:1002500090E057DF60E070E081E090E052DF80E006
:1002600090E039DF80E090E075CFF5DE29E03EE1F7
:1002700045EE4A95F1F73A95E1F72A95D1F7000056
:10028000D0DF22E038E34EEA4A95F1F73A95E1F7FC
:100290002A95D1F782E000DF40E050E563EC76E498
:1002A00080E06EDF82ED94E024D282E0F5DE00E0B3
:1002B00010E1C0EDD7E019D2B80119D0BC01990FF7
:1002C000880B990BD1D0AB01BC0180E01ADF0DD2B5
:1002D000BE010DD0BC016054724A072E000C880B81
:1002E000990BC2D0AB01BC0180E04ADFE4CF97FBA1
:1002F000072E16F4009406D077FD08D00BD007FC2B
:1003000005D03EF4909581959F4F08957095619525
:100310007F4F0895AA1BBB1B51E107C0AA1FBB1F3B
:10032000A617B70710F0A61BB70B881F991F5A9581
:10033000A9F780959095BC01CD0108950CD0E6C039
:10034000DED040F0D5D030F021F45F3F19F0C7C0C7
:10035000511110C1CAC0EBD098F39923C9F35523AA
:10036000B1F3951B550BBB27AA27621773078407A8
:1003700038F09F5F5F4F220F331F441FAA1FA9F35E
:1003800033D00E2E3AF0E0E830D091505040E69550
:10039000001CCAF729D0FE2F27D0660F771F881FB1
:1003A000BB1F261737074807AB07B0E809F0BB0BA0
:1003B000802DBF01FF2793585F4F2AF09E3F5105C4
:1003C00068F08DC0D7C05F3FECF3983EDCF38695B4
:1003D00077956795B795F7959F5FC9F7880F911D3A
:1003E0009695879597F90895E1E0660F771F881F26
:1003F000BB1F621773078407BA0720F0621B730BD9
:10040000840BBA0BEE1F88F7E095089598D088F01A
:100410009F5790F0B92F9927B751A0F0D1F0660FF0
:10042000771F881F991F1AF0BA95C9F712C0B1300B
:1004300081F09FD0B1E008959CC0672F782F882766
:10044000B85F39F0B93FCCF3869577956795B3954A
:10045000D9F73EF490958095709561957F4F8F4FB9
:100460009F4F0895E89409C097FB3EF490958095BE
:10047000709561957F4F8F4F9F4F9923A9F0F92F6A
:1004800096E9BB279395F695879577956795B795E8
:10049000F111F8CFFAF4BB0F11F460FF1BC06F5FCE
:1004A0007F4F8F4F9F4F16C0882311F096E911C0E0
:1004B000772321F09EE8872F762F05C0662371F001
:1004C00096E8862F70E060E02AF09A95660F771F15
:1004D000881FDAF7880F9695879597F9089597F909
:1004E0009F6780E870E060E008959FEF80EC0895DA
:1004F00000240A9416161706180609060895002403
:100500000A9412161306140605060895092E03947C
:10051000000C11F4882352F0BB0F40F4BF2B11F4F0
:1005200060FF04C06F5F7F4F8F4F9F4F089557FD4F
:100530009058440F551F59F05F3F71F04795880F51
:1005400097FB991F61F09F3F79F0879508951216E8
:1005500013061406551FF2CF4695F1DF08C0161694
:1005600017061806991FF1CF869571056105089445
:100570000895E894BB2766277727CB0197F908955C
:100580000AD0C4CFB5DF28F0BADF18F0952309F000
:10059000A6CFABCFEFCFCBDFA8F39923D9F3552369
:1005A000C9F3950F50E0551FAA27EE27FF27BB2759
:1005B00000240894679520F4E20FF31FB41F0A1E6D
:1005C000220F331F441FAA1F6695A9F7779530F4B1
:1005D000F30FB41F0A1E121E08F46395330F441F55
:1005E000AA1F221F769599F7879520F4B40F0A1E4B
:1005F000121E631F440FAA1F221F331F8695A9F7DF
:10060000862F712D602D11249F5750408AF0E1F004
:1006100088234AF0EE0FFF1FBB1F661F771F881F3E
:1006200091505040A9F79E3F510570F058CFA2CF8E
:100630005F3FECF3983EDCF3869577956795B79529
:10064000F795E7959F5FC1F7FE2B880F911D969553
:10065000879597F908958F929F92AF92BF92CF920C
:10066000DF92EF92FF92CF93DF93EC016881798163
:100670008A819B81611571058105910521F464E2F0
:1006800079ED8BE597E02DE133EF41E050E055D077
:1006900049015A0127EA31E440E050E035D06B01CE
:1006A0007C012CEE34EF4FEF5FEFC501B4012CD08D
:1006B000DC01CB018C0D9D1DAE1DBF1DB7FF03C01E
:1006C0000197A109B04888839983AA83BB839F7748
:1006D000DF91CF91FF90EF90DF90CF90BF90AF90E0
:1006E0009F908F900895B7DF089580E690E0B3DF84
:1006F0000895A0E0B0E08093600090936100A09323
:100700006200B09363000895EE27FF27AA27BB2756
:1007100008C0A20FB31FE41FF51F220F331F441F91
:10072000551F969587957795679598F37040A9F72B
:10073000009799F7BD01CF010895052E97FB16F498
:1007400000940FD057FD05D014D007FC02D046F41A
:1007500008C050954095309521953F4F4F4F5F4FC2
:10076000089590958095709561957F4F8F4F9F4F1D
:100770000895A1E21A2EAA1BBB1BFD010DC0AA1FE2
:10078000BB1FEE1FFF1FA217B307E407F50720F0FA
:10079000A21BB30BE40BF50B661F771F881F991F75
:1007A0001A9469F760957095809590959B01AC01BE
:0A07B000BD01CF010895F894FFCFBA
:0407BA00010000003A
:00000001FF
