:10000000BCC1C1C1C0C1BFC1BEC1BDC1BCC1BBC1FA
:10001000BAC1B9C116131F1E1A15180B151C1115DC
:100020001D070F08181614061B0F1B160518180EAF
:1000300018171D13101E0F18140912111A1C0A0A82
:10004000111210171007061E0A1E090C120C0F0EB3
:100050001C140B0A13171C070D211F282613061149
:1000600025240627140722021C20021F2021161E09
:100070000C1F2809120E0E281D2225040806030E47
:1000800016251F221A1D02240F210F241A281514C9
:100090000B1A021B030808231D07120B080B101173
:1000A000282323072610020B11281D26190F081DCF
:1000B0000D1E26081B240C1C0E1718171A011C20D5
:1000C000110F2317150528180D1F261C01251B24A9
:1000D0001516121D0424121220072711040A0C0EF3
:1000E0000D15032520030F212027230624251106A3
:1000F0000C2424241F281625052722021B200B115F
:1001000021280727140E18240122150E0F0B1E1587
:10011000241F041F02240C04181F020B1409031DC2
:100120000F0A070B1F222624121D1718110C161771
:100130001A1D101A070A23152505010C02070C0ABF
:10014000270D07151C1210051C161A102827082841
:100150001E22050C22041A21060E0E101D13050185
:100160000C26221C1B22150A2026251910280A02FB
:1001700010251E211307191F0F1912011008150B46
:100180001B2323100A241A222002270D27011C06F4
:10019000220D13050A02041C122023281E09052221
:1001A000081C150E0C241F1F08112801201B040811
:1001B0001E240C1C031D04040F030B0D1A1B072423
:1001C0001F06020C1A17171A1A03050C0C0E0B2324
:1001D0000B0A1F281310041B0F2522092823111BAB
:1001E000101620200F1B13020B121D040D140619EC
:1001F00026071901011817020E19130A1D151D25CE
:100200000A13091E17072218082328131426280882
:100210002018160716252618061502211B08151189
:10022000221724021315170F20250915271810046B
:100230001A0C08130F1A18080B251D190A0E01189D
:100240000C021D20090816280C0F021E0F0C21118C
:1002500002090E071C1A02121E181227070914148D
:100260000F0B0D120609071403190A1A2124251E63
:10027000190403070C170309070916181D2018177E
:100280002820262716270416152409161C111124C8
:100290001C070719101E230B140D26221A0F200706
:1002A0001A240E201A0A14280123121024200212E4
:1002B0001F0E0A012301011E10151614260F170127
:1002C0000909031B0B0E060706090A03011E1F0975
:1002D0000328161727152010240505170314101AD4
:1002E0000A02260F10260721051F0B110A261B28BC
:1002F000080328080E13081A16210F0D161A180FD6
:1003000017230E01081D2522091E04051B1B281D8D
:10031000211D0304270108030B15202416220F2595
:1003200024070E171711211314280F160E11091C7C
:10033000281E022108050F1D0E1708191C111D1E6D
:1003400001020C1D06032723200F0402181A060AB7
:100350000F080B071A25212122010409101B0A1678
:100360001E10091B150320251E2618030127081C33
:1003700007161E0D0A030504090011241FBECFE94C
:10038000CDBF02D032C03CCE8FE187BB18BA6FE23E
:1003900070E080E090E0FC01E75AFF4F2491FC01FF
:1003A00034E0F695E7953A95E1F7EC5EFF4FE4917E
:1003B00039E1DB01A21BB109E8BB40E0421719F0AB
:1003C00000004F5FFBCF18BA40E0C42FD0E0CA173F
:1003D000DB071CF400004F5FF8CF315069F701963E
:0E03E000803223E09207B9F6D4CFF894FFCF15
:00000001FF
