:100000001EC025C024C023C022C021C020C01FC0E4
:100010001EC01DC01CC01BC01AC019C018C01215BC
:10002000171A1B1D1E1E1E1D1B1A1715120F0C0959
:100030000704030100000001030407090C0F112449
:100040001FBECFE5D2E0DEBFCDBF02D04EC0D8CFBD
:100050008FE187BB18BA8DE390E02EE130E0F90123
:10006000449148BB000000000000000000000000B8
:100070000000000031968E179F0791F7EEE1F0E047
:10008000449148BB00000000000000000000000098
:1000900000000000000031968E179F0789F7EEE1FF
:1000A000F0E0449148BB00000000000000000000A8
:1000B0000000000000000000000031968E179F072E
:1000C00081F7F901449148BB0000000000000000E6
:1000D00000000000000000000000000000002F5F92
:0E00E0003F4F8217930769F7B8CFF894FFCF10
:00000001FF
