:1000000070C077C076C075C074C073C072C071C054
:1000100070C06FC06EC06DC06CC06BC06AC0050997
:1000200009020302050903050908000A0908010776
:10003000000902020106060605080A07040709046A
:100040000104010A0A0108090106070405090A005A
:100050000407010A02010700070305010905050855
:10006000040302050700020806050A00070506004A
:100070000809020206040A0808040A02030303042A
:100080000300060109080707070304040405050720
:1000900000020803080708070203080A070401070B
:1000A00004090806060502020404010801010A0603
:1000B000090206060506000305090A06060A0A02E1
:1000C000010407000304010507050900040A0007ED
:1000D000070000060A01090202090206040A0302D7
:1000E000070011241FBECFE5D2E0DEBFCDBF02D096
:1000F0001DC086CF8FE187BB18BA2FE1EEE1F0E09B
:100100008491805D28BB90E0981718F400009F5FF1
:10011000FBCF18BA90E0981718F400009F5FFBCF50
:10012000319680E0E238F80759F7E8CFF894FFCF2E
:00000001FF
