:100000001EC025C024C023C022C021C020C01FC0E4
:100010001EC01DC01CC01BC01AC019C018C01215BC
:10002000171A1B1D1E1E1E1D1B1A1715120F0C0959
:100030000704030100000001030407090C0F112449
:100040001FBECFE5D2E0DEBFCDBF02D018C0D8CFF3
:100050008FE187BB18BAEEE1F0E0849188BB000025
:100060000000000000000000000000000000000090
:100070000000319680E0ED33F80779F7ECCFF89483
:02008000FFCFB0
:00000001FF
